:03000000020B8F61
:0C0B8F00787FE4F6D8FD758120020BD6BB
:100A820053797374656D2052656164792E2E2E0D33
:100A92000A005370656564205365743A20004D6FF7
:100AA20064653A20436F6E74696E756F7573005397
:100AB20070656564206368616E67656420746F3A6F
:100AC20020000D0A0054696D65723A203520736565
:100AD2006320200054696D65723A2035730D0A0057
:100AE20054696D65723A2031302073656320005479
:100AF200696D65723A203130730D0A0054696D6573
:100B0200723A20313520736563200054696D657235
:100B12003A203135730D0A0046616E204F4E2E2E5B
:100B22002E0046616E20537461727465640D0A0072
:100B320046616E2053746F707065640046616E206A
:100B420053746F70706564204D616E75616C6C7961
:100B52000D0A0054696D65205570212053746F7021
:100B62000046616E2053746F707065643A20546958
:100B72006D6520457870697265640D0A0031323303
:0D0B82004134353642373839432A30234498
:0B0D8E00011B3102190000C100C1016F
:10080000120D82120D6ED2B2C2B3C2B4C2B0D2B651
:100810007BFF7A0A7982120D01120C1B8F08E50802
:10082000C394314044E508D39436503D85081BC23B
:10083000017F80120D557BFF7A0A7994120D26AF45
:100840001B120D9A7FC0120D557BFF7A0A79A012F8
:100850000D267BFF7A0A79B1120D01AF1B120DA490
:100860007BFF7A0A79C4020902E5086441600CE55D
:100870000864426006E50864437068D201E508B484
:10088000411D751901751AF47FC0120D557BFF7A51
:100890000A79C7120D267BFF7A0A79D6120D01E577
:1008A00008B4421D751903751AE87FC0120D557BF7
:1008B000FF7A0A79E2120D267BFF7A0A79F1120D8E
:1008C00001E50864437062751905751ADC7FC01272
:1008D0000D557BFF7A0A79FE120D267BFF7A0B7984
:1008E0000D801FE508B42A1FD200D2B0C2B67F0126
:1008F000120D557BFF7A0B791A120D267BFF7A0BAE
:100900007924120D018022E5086444701C120D4BFD
:100910007BFF7A0B7932120D267BFF7A0B793E1220
:100920000D017FF47E01120CE12000030208191270
:100930000C8E200103020819D3E51A9400E51994DE
:10094000004008E51A151A70021519E51A451960D4
:1009500003020819120D4B7BFF7A0B7955120D26F5
:100960007BFF7A0B7963120D017FE87E03120CE1A5
:0309700002081961
:0C0D8200758920758DFD759850D28E2269
:080DA4008F993099FDC29922DC
:100D01008B098A0A890BAB09AA0AA90B120A696025
:100D110013050BE50B7002050A14F9120A69FF129B
:050D21000DA480E22298
:100C8E00E51BB43105750902802BE51BB4320575E1
:100C9E0009048021E51BB433057509068017E51B91
:100CAE00B43405750907800DE51BB43505750908C3
:100CBE008003750909D2B4AF097E00120CE1C2B4EB
:0D0CCE00C3740A9509FFE49400FE020CE1D6
:0A0D4B00C200C2B4C2B0D2B67F01EC
:100D55008F098509A0C2B5120CDBC2B7E509B4013C
:090D6500077F147E00120CE1224C
:0A0D9A008FA0D2B5120CDBC2B72205
:100D6E007F38120D557F0C120D557F01120D557FD8
:040D7E0006020D5507
:100D26008B098A0A890BAB09AA0AA90B120A696000
:100D360013050BE50B7002050A14F9120A69FF1276
:050D46000D9A80E2227D
:060CDB00D2B77F017E008C
:100CE100E4FDFCC3ED9FEC9E5015E4FBFA0BBB0049
:0F0CF100010AEB64784A70F50DBD00010C80E438
:010D000022D0
:100C1B0078097C007D007BFF7A0B797F7E007F104B
:100C2B00120A437590F0E59064F06054E4FDA8055A
:100C3B007401088002C333D8FCF4F590E4FC7E0009
:100C4B007410A804088005C333CE33CED8F9FFAB9C
:100C5B0090EF5B70237E007410A804088005C333EB
:100C6B00CE33CED8F9FFAB90EF5B60E9ED25E025F5
:100C7B00E024092CF8E6FF220CBC04C20DBD04AE27
:020C8B007F00E8
:010C8D002244
:100B9B00020800E493A3F8E493A34003F68001F268
:100BAB0008DFF48029E493A3F85407240CC8C3335B
:100BBB00C4540F4420C8834004F456800146F6DF2A
:100BCB00E4800B0102040810204080900D8EE47E1F
:100BDB00019360BCA3FF543F30E509541FFEE4931F
:100BEB00A360010ECF54C025E060A840B8E493A3E6
:100BFB00FAE493A3F8E493A3C8C582C8CAC583CA11
:100C0B00F0A3C8C582C8CAC583CADFE9DEE780BEC8
:010D99000059
:10097300E709F608DFFA8046E709F208DFFA803E66
:1009830088828C83E709F0A3DFFA8032E309F60853
:10099300DFFA8078E309F208DFFA807088828C83BB
:1009A300E309F0A3DFFA806489828A83E0A3F6086F
:1009B300DFFA805889828A83E0A3F208DFFA804C49
:1009C30080D280FA80C680D4806980F28033801020
:1009D30080A680EA809A80A880DA80E280CA803389
:1009E30089828A83ECFAE493A3C8C582C8CCC58301
:1009F300CCF0A3C8C582C8CCC583CCDFE9DEE780D1
:100A03000D89828A83E493A3F608DFF9ECFAA9F04F
:100A1300EDFB2289828A83ECFAE0A3C8C582C8CCA5
:100A2300C583CCF0A3C8C582C8CCC583CCDFEADEBE
:100A3300E880DB89828A83E493A3F208DFF980CC20
:100A430088F0EF60010E4E60C388F0ED2402B40419
:100A53000050B9F582EB2402B4040050AF232345C0
:060A630082239009C37319
:100A6900BB010689828A83E0225002E722BBFE028B
:090A7900E32289828A83E49322BE
:00000001FF
